{
  "contractName": "Buycar",
  "abi": [
    {
      "inputs": [
        {
          "internalType": "uint256",
          "name": "",
          "type": "uint256"
        }
      ],
      "name": "buyers",
      "outputs": [
        {
          "internalType": "address",
          "name": "",
          "type": "address"
        }
      ],
      "stateMutability": "view",
      "type": "function"
    },
    {
      "inputs": [
        {
          "internalType": "uint256",
          "name": "carId",
          "type": "uint256"
        }
      ],
      "name": "buy",
      "outputs": [
        {
          "internalType": "uint256",
          "name": "",
          "type": "uint256"
        }
      ],
      "stateMutability": "nonpayable",
      "type": "function"
    },
    {
      "inputs": [],
      "name": "getBuyers",
      "outputs": [
        {
          "internalType": "address[16]",
          "name": "",
          "type": "address[16]"
        }
      ],
      "stateMutability": "view",
      "type": "function"
    }
  ],
  "bytecode": "0x608060405234801561001057600080fd5b50610423806100206000396000f3fe608060405234801561001057600080fd5b50600436106100415760003560e01c8063d96a094a14610046578063f2aa821814610076578063f64bfaba146100a6575b600080fd5b610060600480360381019061005b919061021e565b6100c4565b60405161006d919061031e565b60405180910390f35b610090600480360381019061008b919061021e565b61012f565b60405161009d91906102e7565b60405180910390f35b6100ae610165565b6040516100bb9190610302565b60405180910390f35b6000808210156100d357600080fd5b33600083601081106100e8576100e76103a2565b5b0160006101000a81548173ffffffffffffffffffffffffffffffffffffffff021916908373ffffffffffffffffffffffffffffffffffffffff160217905550819050919050565b6000816010811061013f57600080fd5b016000915054906101000a900473ffffffffffffffffffffffffffffffffffffffff1681565b61016d6101e6565b60006010806020026040519081016040528092919082601080156101dc576020028201915b8160009054906101000a900473ffffffffffffffffffffffffffffffffffffffff1673ffffffffffffffffffffffffffffffffffffffff1681526020019060010190808311610192575b5050505050905090565b604051806102000160405280601090602082028036833780820191505090505090565b600081359050610218816103d6565b92915050565b600060208284031215610234576102336103d1565b5b600061024284828501610209565b91505092915050565b60006102578383610263565b60208301905092915050565b61026c81610366565b82525050565b61027b81610366565b82525050565b61028a81610343565b610294818461035b565b925061029f82610339565b8060005b838110156102d05781516102b7878261024b565b96506102c28361034e565b9250506001810190506102a3565b505050505050565b6102e181610398565b82525050565b60006020820190506102fc6000830184610272565b92915050565b6000610200820190506103186000830184610281565b92915050565b600060208201905061033360008301846102d8565b92915050565b6000819050919050565b600060109050919050565b6000602082019050919050565b600081905092915050565b600061037182610378565b9050919050565b600073ffffffffffffffffffffffffffffffffffffffff82169050919050565b6000819050919050565b7f4e487b7100000000000000000000000000000000000000000000000000000000600052603260045260246000fd5b600080fd5b6103df81610398565b81146103ea57600080fd5b5056fea2646970667358221220618a1bd530f517c949edf1a9f5b0fb12647218971a5373afaba30b54280f2c3d64736f6c63430008060033",
  "immutableReferences": {},
  "source": "// SPDX-License-Identifier: MIT\r\npragma solidity 0.8.6;\r\n\r\ncontract Buycar {\r\naddress[16] public buyers;\r\n    // Adopting a pet\r\n    function buy(uint carId) public returns (uint) {\r\n    require(carId >= 0);\r\n\r\n    buyers[carId] = msg.sender;\r\n\r\n    return carId;\r\n    }\r\n    \r\n    // Retrieving the adopters\r\n    function getBuyers() public view returns (address[16] memory) {\r\n    return buyers;\r\n    }\r\n}\r\n",
  "sourcePath": "C:\\Users\\yfu54\\Desktop\\Cryptic Titles\\contracts\\Buycar.sol",
  "compiler": {
    "name": "solc",
    "version": "0.8.6+commit.11564f7e.Emscripten.clang"
  },
  "schemaVersion": "3.4.3",
  "updatedAt": "2021-11-08T22:27:34.352Z",
  "devdoc": {
    "kind": "dev",
    "methods": {},
    "version": 1
  },
  "userdoc": {
    "kind": "user",
    "methods": {},
    "version": 1
  }
}