{
  "contractName": "CarTitle",
  "abi": [
    {
      "inputs": [],
      "stateMutability": "nonpayable",
      "type": "constructor"
    },
    {
      "inputs": [
        {
          "internalType": "address",
          "name": "_approve",
          "type": "address"
        },
        {
          "internalType": "uint256",
          "name": "_vin",
          "type": "uint256"
        }
      ],
      "name": "approve",
      "outputs": [],
      "stateMutability": "nonpayable",
      "type": "function"
    },
    {
      "inputs": [
        {
          "internalType": "address",
          "name": "_owner",
          "type": "address"
        }
      ],
      "name": "balanceOf",
      "outputs": [
        {
          "internalType": "uint256",
          "name": "",
          "type": "uint256"
        }
      ],
      "stateMutability": "view",
      "type": "function"
    },
    {
      "inputs": [
        {
          "internalType": "uint256",
          "name": "_vin",
          "type": "uint256"
        }
      ],
      "name": "getApproved",
      "outputs": [
        {
          "internalType": "address",
          "name": "",
          "type": "address"
        }
      ],
      "stateMutability": "view",
      "type": "function"
    },
    {
      "inputs": [
        {
          "internalType": "uint256",
          "name": "_vin",
          "type": "uint256"
        }
      ],
      "name": "ownerOf",
      "outputs": [
        {
          "internalType": "address",
          "name": "",
          "type": "address"
        }
      ],
      "stateMutability": "view",
      "type": "function"
    },
    {
      "inputs": [
        {
          "internalType": "address",
          "name": "_to",
          "type": "address"
        },
        {
          "internalType": "uint256",
          "name": "_vin",
          "type": "uint256"
        }
      ],
      "name": "transferFrom",
      "outputs": [],
      "stateMutability": "nonpayable",
      "type": "function"
    },
    {
      "inputs": [
        {
          "internalType": "address",
          "name": "_owner",
          "type": "address"
        },
        {
          "internalType": "uint256",
          "name": "_vin",
          "type": "uint256"
        },
        {
          "internalType": "string",
          "name": "_make",
          "type": "string"
        },
        {
          "internalType": "string",
          "name": "_model",
          "type": "string"
        },
        {
          "internalType": "string",
          "name": "_first_name",
          "type": "string"
        },
        {
          "internalType": "string",
          "name": "_last_name",
          "type": "string"
        },
        {
          "internalType": "string",
          "name": "_country",
          "type": "string"
        },
        {
          "internalType": "string",
          "name": "_state",
          "type": "string"
        },
        {
          "internalType": "string",
          "name": "_city",
          "type": "string"
        }
      ],
      "name": "newTitle",
      "outputs": [],
      "stateMutability": "nonpayable",
      "type": "function"
    }
  ],
  "bytecode": "0x608060405234801561001057600080fd5b5033600460006101000a81548173ffffffffffffffffffffffffffffffffffffffff021916908373ffffffffffffffffffffffffffffffffffffffff160217905550611445806100616000396000f3fe608060405234801561001057600080fd5b50600436106100625760003560e01c806301c6adc3146100675780630560626114610083578063081812fc1461009f578063095ea7b3146100cf5780636352211e146100eb57806370a082311461011b575b600080fd5b610081600480360381019061007c9190610ed7565b61014b565b005b61009d60048036038101906100989190610f17565b6108eb565b005b6100b960048036038101906100b491906110a5565b610bda565b6040516100c691906110f0565b60405180910390f35b6100e960048036038101906100e49190610ed7565b610c17565b005b610105600480360381019061010091906110a5565b610c1b565b60405161011291906110f0565b60405180910390f35b61013560048036038101906101309190610eaa565b610c57565b604051610142919061110b565b60405180910390f35b3373ffffffffffffffffffffffffffffffffffffffff1660008083815260200190815260200160002060009054906101000a900473ffffffffffffffffffffffffffffffffffffffff1673ffffffffffffffffffffffffffffffffffffffff16146101b557600080fd5b8160008083815260200190815260200160002060006101000a81548173ffffffffffffffffffffffffffffffffffffffff021916908373ffffffffffffffffffffffffffffffffffffffff160217905550600260003373ffffffffffffffffffffffffffffffffffffffff1673ffffffffffffffffffffffffffffffffffffffff1681526020019081526020016000206000815480929190610256906111fb565b9190505550600260008373ffffffffffffffffffffffffffffffffffffffff1673ffffffffffffffffffffffffffffffffffffffff16815260200190815260200160002060008154809291906102ab90611288565b919050555060005b600160003373ffffffffffffffffffffffffffffffffffffffff1673ffffffffffffffffffffffffffffffffffffffff168152602001908152602001600020805490508110156108e65781600160003373ffffffffffffffffffffffffffffffffffffffff1673ffffffffffffffffffffffffffffffffffffffff168152602001908152602001600020828154811061034f5761034e61135e565b5b90600052602060002090600802016000015414156108d357600160008473ffffffffffffffffffffffffffffffffffffffff1673ffffffffffffffffffffffffffffffffffffffff168152602001908152602001600020600160003373ffffffffffffffffffffffffffffffffffffffff1673ffffffffffffffffffffffffffffffffffffffff16815260200190815260200160002082815481106103f7576103f661135e565b5b9060005260206000209060080201908060018154018082558091505060019003906000526020600020906008020160009091909190915060008201548160000155600182018160010190805461044c90611225565b610457929190610ca0565b50600282018160020190805461046c90611225565b610477929190610ca0565b50600382018160030190805461048c90611225565b610497929190610ca0565b5060048201816004019080546104ac90611225565b6104b7929190610ca0565b5060058201816005019080546104cc90611225565b6104d7929190610ca0565b5060068201816006019080546104ec90611225565b6104f7929190610ca0565b50600782018160070190805461050c90611225565b610517929190610ca0565b505050600060018060003373ffffffffffffffffffffffffffffffffffffffff1673ffffffffffffffffffffffffffffffffffffffff1681526020019081526020016000208054905061056a919061117c565b9050600160003373ffffffffffffffffffffffffffffffffffffffff1673ffffffffffffffffffffffffffffffffffffffff16815260200190815260200160002081815481106105bd576105bc61135e565b5b9060005260206000209060080201600160003373ffffffffffffffffffffffffffffffffffffffff1673ffffffffffffffffffffffffffffffffffffffff168152602001908152602001600020838154811061061c5761061b61135e565b5b906000526020600020906008020160008201548160000155600182018160010190805461064890611225565b610653929190610ca0565b50600282018160020190805461066890611225565b610673929190610ca0565b50600382018160030190805461068890611225565b610693929190610ca0565b5060048201816004019080546106a890611225565b6106b3929190610ca0565b5060058201816005019080546106c890611225565b6106d3929190610ca0565b5060068201816006019080546106e890611225565b6106f3929190610ca0565b50600782018160070190805461070890611225565b610713929190610ca0565b50905050600160003373ffffffffffffffffffffffffffffffffffffffff1673ffffffffffffffffffffffffffffffffffffffff16815260200190815260200160002081815481106107685761076761135e565b5b906000526020600020906008020160008082016000905560018201600061078f9190610d2d565b60028201600061079f9190610d2d565b6003820160006107af9190610d2d565b6004820160006107bf9190610d2d565b6005820160006107cf9190610d2d565b6006820160006107df9190610d2d565b6007820160006107ef9190610d2d565b5050600160003373ffffffffffffffffffffffffffffffffffffffff1673ffffffffffffffffffffffffffffffffffffffff1681526020019081526020016000208054806108405761083f61132f565b5b600190038181906000526020600020906008020160008082016000905560018201600061086d9190610d2d565b60028201600061087d9190610d2d565b60038201600061088d9190610d2d565b60048201600061089d9190610d2d565b6005820160006108ad9190610d2d565b6006820160006108bd9190610d2d565b6007820160006108cd9190610d2d565b50509055505b80806108de90611288565b9150506102b3565b505050565b600460009054906101000a900473ffffffffffffffffffffffffffffffffffffffff1673ffffffffffffffffffffffffffffffffffffffff163373ffffffffffffffffffffffffffffffffffffffff161461094557600080fd5b600073ffffffffffffffffffffffffffffffffffffffff166000808a815260200190815260200160002060009054906101000a900473ffffffffffffffffffffffffffffffffffffffff1673ffffffffffffffffffffffffffffffffffffffff16146109b057600080fd5b600160008a73ffffffffffffffffffffffffffffffffffffffff1673ffffffffffffffffffffffffffffffffffffffff1681526020019081526020016000206040518061010001604052808a8152602001898152602001888152602001878152602001868152602001858152602001848152602001838152509080600181540180825580915050600190039060005260206000209060080201600090919091909150600082015181600001556020820151816001019080519060200190610a78929190610d6d565b506040820151816002019080519060200190610a95929190610d6d565b506060820151816003019080519060200190610ab2929190610d6d565b506080820151816004019080519060200190610acf929190610d6d565b5060a0820151816005019080519060200190610aec929190610d6d565b5060c0820151816006019080519060200190610b09929190610d6d565b5060e0820151816007019080519060200190610b26929190610d6d565b505050886000808a815260200190815260200160002060006101000a81548173ffffffffffffffffffffffffffffffffffffffff021916908373ffffffffffffffffffffffffffffffffffffffff160217905550600260008a73ffffffffffffffffffffffffffffffffffffffff1673ffffffffffffffffffffffffffffffffffffffff1681526020019081526020016000206000815480929190610bca90611288565b9190505550505050505050505050565b60006003600083815260200190815260200160002060009054906101000a900473ffffffffffffffffffffffffffffffffffffffff169050919050565b5050565b600080600083815260200190815260200160002060009054906101000a900473ffffffffffffffffffffffffffffffffffffffff169050919050565b6000600260008373ffffffffffffffffffffffffffffffffffffffff1673ffffffffffffffffffffffffffffffffffffffff168152602001908152602001600020549050919050565b828054610cac90611225565b90600052602060002090601f016020900481019282610cce5760008555610d1c565b82601f10610cdf5780548555610d1c565b82800160010185558215610d1c57600052602060002091601f016020900482015b82811115610d1b578254825591600101919060010190610d00565b5b509050610d299190610df3565b5090565b508054610d3990611225565b6000825580601f10610d4b5750610d6a565b601f016020900490600052602060002090810190610d699190610df3565b5b50565b828054610d7990611225565b90600052602060002090601f016020900481019282610d9b5760008555610de2565b82601f10610db457805160ff1916838001178555610de2565b82800160010185558215610de2579182015b82811115610de1578251825591602001919060010190610dc6565b5b509050610def9190610df3565b5090565b5b80821115610e0c576000816000905550600101610df4565b5090565b6000610e23610e1e8461114b565b611126565b905082815260208101848484011115610e3f57610e3e6113c1565b5b610e4a8482856111ec565b509392505050565b600081359050610e61816113e1565b92915050565b600082601f830112610e7c57610e7b6113bc565b5b8135610e8c848260208601610e10565b91505092915050565b600081359050610ea4816113f8565b92915050565b600060208284031215610ec057610ebf6113cb565b5b6000610ece84828501610e52565b91505092915050565b60008060408385031215610eee57610eed6113cb565b5b6000610efc85828601610e52565b9250506020610f0d85828601610e95565b9150509250929050565b60008060008060008060008060006101208a8c031215610f3a57610f396113cb565b5b6000610f488c828d01610e52565b9950506020610f598c828d01610e95565b98505060408a013567ffffffffffffffff811115610f7a57610f796113c6565b5b610f868c828d01610e67565b97505060608a013567ffffffffffffffff811115610fa757610fa66113c6565b5b610fb38c828d01610e67565b96505060808a013567ffffffffffffffff811115610fd457610fd36113c6565b5b610fe08c828d01610e67565b95505060a08a013567ffffffffffffffff811115611001576110006113c6565b5b61100d8c828d01610e67565b94505060c08a013567ffffffffffffffff81111561102e5761102d6113c6565b5b61103a8c828d01610e67565b93505060e08a013567ffffffffffffffff81111561105b5761105a6113c6565b5b6110678c828d01610e67565b9250506101008a013567ffffffffffffffff811115611089576110886113c6565b5b6110958c828d01610e67565b9150509295985092959850929598565b6000602082840312156110bb576110ba6113cb565b5b60006110c984828501610e95565b91505092915050565b6110db816111b0565b82525050565b6110ea816111e2565b82525050565b600060208201905061110560008301846110d2565b92915050565b600060208201905061112060008301846110e1565b92915050565b6000611130611141565b905061113c8282611257565b919050565b6000604051905090565b600067ffffffffffffffff8211156111665761116561138d565b5b61116f826113d0565b9050602081019050919050565b6000611187826111e2565b9150611192836111e2565b9250828210156111a5576111a46112d1565b5b828203905092915050565b60006111bb826111c2565b9050919050565b600073ffffffffffffffffffffffffffffffffffffffff82169050919050565b6000819050919050565b82818337600083830152505050565b6000611206826111e2565b9150600082141561121a576112196112d1565b5b600182039050919050565b6000600282049050600182168061123d57607f821691505b6020821081141561125157611250611300565b5b50919050565b611260826113d0565b810181811067ffffffffffffffff8211171561127f5761127e61138d565b5b80604052505050565b6000611293826111e2565b91507fffffffffffffffffffffffffffffffffffffffffffffffffffffffffffffffff8214156112c6576112c56112d1565b5b600182019050919050565b7f4e487b7100000000000000000000000000000000000000000000000000000000600052601160045260246000fd5b7f4e487b7100000000000000000000000000000000000000000000000000000000600052602260045260246000fd5b7f4e487b7100000000000000000000000000000000000000000000000000000000600052603160045260246000fd5b7f4e487b7100000000000000000000000000000000000000000000000000000000600052603260045260246000fd5b7f4e487b7100000000000000000000000000000000000000000000000000000000600052604160045260246000fd5b600080fd5b600080fd5b600080fd5b600080fd5b6000601f19601f8301169050919050565b6113ea816111b0565b81146113f557600080fd5b50565b611401816111e2565b811461140c57600080fd5b5056fea26469706673582212202659ffb32d75d09be1a1660b1f40d864b0e4dee362d38f8887da99dc22aefc6b64736f6c63430008060033",
  "immutableReferences": {},
  "source": "// SPDX-License-Identifier: MIT\r\npragma solidity 0.8.6;\r\n\r\nimport \"./NFTImplementations.sol\";\r\n\r\ncontract CarTitle is NFTImplementations{\r\n    \r\n    address owner;\r\n    \r\n    constructor()  {\r\n        owner = msg.sender;\r\n    }\r\n    \r\n    \r\n\r\n    // Only owner modifier in this context means the DMV or other governing body\r\n    modifier onlyOwner {\r\n        require(msg.sender == owner);\r\n        _;\r\n    }\r\n    \r\n    \r\n    function newTitle(address _owner, uint256 _vin, string memory _make, string memory _model, string memory _first_name, string memory _last_name, string memory _country, string memory _state, string memory _city) public onlyOwner {\r\n        require(vinToOwner[_vin] ==  0x0000000000000000000000000000000000000000);\r\n        \r\n        titles[_owner].push(Title(_vin, _make, _model, _first_name, _last_name, _country, _state, _city));\r\n        vinToOwner[_vin] = _owner;\r\n        balance[_owner]++;\r\n    }\r\n}\r\n",
  "sourcePath": "C:\\Users\\yfu54\\Desktop\\Cryptic Titles\\contracts\\CarTitle.sol",
  "compiler": {
    "name": "solc",
    "version": "0.8.6+commit.11564f7e.Emscripten.clang"
  },
  "schemaVersion": "3.4.3",
  "updatedAt": "2021-11-08T22:27:34.360Z",
  "devdoc": {
    "kind": "dev",
    "methods": {},
    "version": 1
  },
  "userdoc": {
    "kind": "user",
    "methods": {},
    "version": 1
  }
}