{
  "contractName": "NFTImplementations",
  "abi": [
    {
      "inputs": [
        {
          "internalType": "uint256",
          "name": "_vin",
          "type": "uint256"
        }
      ],
      "name": "getApproved",
      "outputs": [
        {
          "internalType": "address",
          "name": "",
          "type": "address"
        }
      ],
      "stateMutability": "view",
      "type": "function"
    },
    {
      "inputs": [
        {
          "internalType": "address",
          "name": "_approve",
          "type": "address"
        },
        {
          "internalType": "uint256",
          "name": "_vin",
          "type": "uint256"
        }
      ],
      "name": "approve",
      "outputs": [],
      "stateMutability": "nonpayable",
      "type": "function"
    },
    {
      "inputs": [
        {
          "internalType": "address",
          "name": "_to",
          "type": "address"
        },
        {
          "internalType": "uint256",
          "name": "_vin",
          "type": "uint256"
        }
      ],
      "name": "transferFrom",
      "outputs": [],
      "stateMutability": "nonpayable",
      "type": "function"
    },
    {
      "inputs": [
        {
          "internalType": "uint256",
          "name": "_vin",
          "type": "uint256"
        }
      ],
      "name": "ownerOf",
      "outputs": [
        {
          "internalType": "address",
          "name": "",
          "type": "address"
        }
      ],
      "stateMutability": "view",
      "type": "function"
    },
    {
      "inputs": [
        {
          "internalType": "address",
          "name": "_owner",
          "type": "address"
        }
      ],
      "name": "balanceOf",
      "outputs": [
        {
          "internalType": "uint256",
          "name": "",
          "type": "uint256"
        }
      ],
      "stateMutability": "view",
      "type": "function"
    }
  ],
  "bytecode": "0x608060405234801561001057600080fd5b50610dc6806100206000396000f3fe608060405234801561001057600080fd5b50600436106100575760003560e01c806301c6adc31461005c578063081812fc14610078578063095ea7b3146100a85780636352211e146100c457806370a08231146100f4575b600080fd5b61007660048036038101906100719190610acb565b610124565b005b610092600480360381019061008d9190610b0b565b6108c4565b60405161009f9190610b56565b60405180910390f35b6100c260048036038101906100bd9190610acb565b610901565b005b6100de60048036038101906100d99190610b0b565b610905565b6040516100eb9190610b56565b60405180910390f35b61010e60048036038101906101099190610a9e565b610941565b60405161011b9190610b71565b60405180910390f35b3373ffffffffffffffffffffffffffffffffffffffff1660008083815260200190815260200160002060009054906101000a900473ffffffffffffffffffffffffffffffffffffffff1673ffffffffffffffffffffffffffffffffffffffff161461018e57600080fd5b8160008083815260200190815260200160002060006101000a81548173ffffffffffffffffffffffffffffffffffffffff021916908373ffffffffffffffffffffffffffffffffffffffff160217905550600260003373ffffffffffffffffffffffffffffffffffffffff1673ffffffffffffffffffffffffffffffffffffffff168152602001908152602001600020600081548092919061022f90610bfc565b9190505550600260008373ffffffffffffffffffffffffffffffffffffffff1673ffffffffffffffffffffffffffffffffffffffff168152602001908152602001600020600081548092919061028490610c58565b919050555060005b600160003373ffffffffffffffffffffffffffffffffffffffff1673ffffffffffffffffffffffffffffffffffffffff168152602001908152602001600020805490508110156108bf5781600160003373ffffffffffffffffffffffffffffffffffffffff1673ffffffffffffffffffffffffffffffffffffffff168152602001908152602001600020828154811061032857610327610d2e565b5b90600052602060002090600802016000015414156108ac57600160008473ffffffffffffffffffffffffffffffffffffffff1673ffffffffffffffffffffffffffffffffffffffff168152602001908152602001600020600160003373ffffffffffffffffffffffffffffffffffffffff1673ffffffffffffffffffffffffffffffffffffffff16815260200190815260200160002082815481106103d0576103cf610d2e565b5b9060005260206000209060080201908060018154018082558091505060019003906000526020600020906008020160009091909190915060008201548160000155600182018160010190805461042590610c26565b61043092919061098a565b50600282018160020190805461044590610c26565b61045092919061098a565b50600382018160030190805461046590610c26565b61047092919061098a565b50600482018160040190805461048590610c26565b61049092919061098a565b5060058201816005019080546104a590610c26565b6104b092919061098a565b5060068201816006019080546104c590610c26565b6104d092919061098a565b5060078201816007019080546104e590610c26565b6104f092919061098a565b505050600060018060003373ffffffffffffffffffffffffffffffffffffffff1673ffffffffffffffffffffffffffffffffffffffff168152602001908152602001600020805490506105439190610b8c565b9050600160003373ffffffffffffffffffffffffffffffffffffffff1673ffffffffffffffffffffffffffffffffffffffff168152602001908152602001600020818154811061059657610595610d2e565b5b9060005260206000209060080201600160003373ffffffffffffffffffffffffffffffffffffffff1673ffffffffffffffffffffffffffffffffffffffff16815260200190815260200160002083815481106105f5576105f4610d2e565b5b906000526020600020906008020160008201548160000155600182018160010190805461062190610c26565b61062c92919061098a565b50600282018160020190805461064190610c26565b61064c92919061098a565b50600382018160030190805461066190610c26565b61066c92919061098a565b50600482018160040190805461068190610c26565b61068c92919061098a565b5060058201816005019080546106a190610c26565b6106ac92919061098a565b5060068201816006019080546106c190610c26565b6106cc92919061098a565b5060078201816007019080546106e190610c26565b6106ec92919061098a565b50905050600160003373ffffffffffffffffffffffffffffffffffffffff1673ffffffffffffffffffffffffffffffffffffffff168152602001908152602001600020818154811061074157610740610d2e565b5b90600052602060002090600802016000808201600090556001820160006107689190610a17565b6002820160006107789190610a17565b6003820160006107889190610a17565b6004820160006107989190610a17565b6005820160006107a89190610a17565b6006820160006107b89190610a17565b6007820160006107c89190610a17565b5050600160003373ffffffffffffffffffffffffffffffffffffffff1673ffffffffffffffffffffffffffffffffffffffff16815260200190815260200160002080548061081957610818610cff565b5b60019003818190600052602060002090600802016000808201600090556001820160006108469190610a17565b6002820160006108569190610a17565b6003820160006108669190610a17565b6004820160006108769190610a17565b6005820160006108869190610a17565b6006820160006108969190610a17565b6007820160006108a69190610a17565b50509055505b80806108b790610c58565b91505061028c565b505050565b60006003600083815260200190815260200160002060009054906101000a900473ffffffffffffffffffffffffffffffffffffffff169050919050565b5050565b600080600083815260200190815260200160002060009054906101000a900473ffffffffffffffffffffffffffffffffffffffff169050919050565b6000600260008373ffffffffffffffffffffffffffffffffffffffff1673ffffffffffffffffffffffffffffffffffffffff168152602001908152602001600020549050919050565b82805461099690610c26565b90600052602060002090601f0160209004810192826109b85760008555610a06565b82601f106109c95780548555610a06565b82800160010185558215610a0657600052602060002091601f016020900482015b82811115610a055782548255916001019190600101906109ea565b5b509050610a139190610a57565b5090565b508054610a2390610c26565b6000825580601f10610a355750610a54565b601f016020900490600052602060002090810190610a539190610a57565b5b50565b5b80821115610a70576000816000905550600101610a58565b5090565b600081359050610a8381610d62565b92915050565b600081359050610a9881610d79565b92915050565b600060208284031215610ab457610ab3610d5d565b5b6000610ac284828501610a74565b91505092915050565b60008060408385031215610ae257610ae1610d5d565b5b6000610af085828601610a74565b9250506020610b0185828601610a89565b9150509250929050565b600060208284031215610b2157610b20610d5d565b5b6000610b2f84828501610a89565b91505092915050565b610b4181610bc0565b82525050565b610b5081610bf2565b82525050565b6000602082019050610b6b6000830184610b38565b92915050565b6000602082019050610b866000830184610b47565b92915050565b6000610b9782610bf2565b9150610ba283610bf2565b925082821015610bb557610bb4610ca1565b5b828203905092915050565b6000610bcb82610bd2565b9050919050565b600073ffffffffffffffffffffffffffffffffffffffff82169050919050565b6000819050919050565b6000610c0782610bf2565b91506000821415610c1b57610c1a610ca1565b5b600182039050919050565b60006002820490506001821680610c3e57607f821691505b60208210811415610c5257610c51610cd0565b5b50919050565b6000610c6382610bf2565b91507fffffffffffffffffffffffffffffffffffffffffffffffffffffffffffffffff821415610c9657610c95610ca1565b5b600182019050919050565b7f4e487b7100000000000000000000000000000000000000000000000000000000600052601160045260246000fd5b7f4e487b7100000000000000000000000000000000000000000000000000000000600052602260045260246000fd5b7f4e487b7100000000000000000000000000000000000000000000000000000000600052603160045260246000fd5b7f4e487b7100000000000000000000000000000000000000000000000000000000600052603260045260246000fd5b600080fd5b610d6b81610bc0565b8114610d7657600080fd5b50565b610d8281610bf2565b8114610d8d57600080fd5b5056fea2646970667358221220255c4f31e0668c766646f87dbeffbeb1f1334bfa04b2c136a7c746774a6b823a64736f6c63430008060033",
  "immutableReferences": {},
  "source": "// SPDX-License-Identifier: MIT\r\npragma solidity 0.8.6;\r\n\r\nimport \"./Data.sol\";\r\n\r\ncontract NFTImplementations is Data{\r\n    function getApproved(uint256 _vin) public view returns(address) {\r\n        return approved[_vin];\r\n    }\r\n    \r\n    function approve(address _approve, uint256 _vin) external {\r\n        // This function is just here for ERC-721 standards.\r\n        // In the context of a legal title, you only want the owner to have access to it.\r\n        // emit Approval(msg.sender, msg.sender, _vin);\r\n    }\r\n    \r\n    function transferFrom(address _to, uint256 _vin) public {\r\n        require(vinToOwner[_vin] == msg.sender);\r\n        \r\n        vinToOwner[_vin] = _to;\r\n        \r\n        balance[msg.sender]--;\r\n        balance[_to]++;\r\n        \r\n        for(uint i = 0; i < titles[msg.sender].length; i++) {\r\n            if(titles[msg.sender][i].vin == _vin) { // If the VIN matches the one passed in this function\r\n                titles[_to].push(titles[msg.sender][i]); // Send the title to the new account\r\n                \r\n                uint last = titles[msg.sender].length - 1;\r\n                \r\n                titles[msg.sender][i] = titles[msg.sender][last]; // Swap the values\r\n                delete titles[msg.sender][last]; // Delete last value\r\n                titles[msg.sender].pop();\r\n            }\r\n        }\r\n        \r\n    }\r\n    \r\n    function ownerOf(uint256 _vin) public view returns(address) {\r\n        return vinToOwner[_vin];\r\n    }\r\n    \r\n    function balanceOf(address _owner) public view returns (uint256) {\r\n        return balance[_owner];\r\n    }\r\n}",
  "sourcePath": "C:\\Users\\yfu54\\Desktop\\Cryptic Titles\\contracts\\NFTImplementations.sol",
  "compiler": {
    "name": "solc",
    "version": "0.8.6+commit.11564f7e.Emscripten.clang"
  },
  "schemaVersion": "3.4.3",
  "updatedAt": "2021-11-08T22:27:34.383Z",
  "devdoc": {
    "kind": "dev",
    "methods": {},
    "version": 1
  },
  "userdoc": {
    "kind": "user",
    "methods": {},
    "version": 1
  }
}